S0150000776966695F6669726D776172652E73726563A4
S21440000028FC01209D2C4000652D4000652D4000B9
S214400010652D4000652D4000652D40000000000025
S214400020000000000000000000000000652D4000B9
S214400030652D400000000000652D4000652D400005
S214400040652D4000652D4000652D4000652D400023
S214400050652D4000652D4000652D400000000000E5
S214400060652D4000652D400000000000B10B4000AB
S214400070C90B4000000000000D254000652D4000E3
S2144000800000000000000000652D4000652D400087
S214400090652D4000652D4000652D40004123400001
S2144000A0652D4000652D4000000000000000000067
S2144000B000000000652D4000652D4000652D400085
S2144000C0652D4000652D4000652D400010B5054C5F
S2144000D0237833B9044B13B10448AFF300800123AF
S2144000E0237010BDC009002000000000149340009B
S2144000F00C4B43B10C480D4910B5AFF300800C488B
S214400100036823B910BD0A48036833B97047094BE2
S214400110002BF7D0BDE810401847064B002BF5D013
S214400120184700BF0000000014934000C409002098
S214400130149340000000000080B582B000AF7860A5
S2144001407B68072B31D801A252F823F0A901400062
S2144001506D014000750140007D0140008501400072
S2144001608D014000950140009F0140000020114B4A
S21440017098471AE001200F4B984716E000200E4B98
S214400180984712E010200C4B98470EE020200A4B70
S21440019098470AE03E210020084B984705E03E215C
S2144001A00120064B984700E000BF00BF0837BD4619
S2144001B080BD00BF610C4000CD0C40003D0D4000AE
S2144001C080B582B000AF78607B68072B26D801A246
S2144001D052F823F0F5014000F9014000F9014000D3
S2144001E00B0240000B0240000B0240000B02400096
S2144001F00B024000012312E00B4B98470346002BAE
S21440020014BF01230023DBB209E0084B984703469E
S214400210002B14BF01230023DBB200E00023184666
S2144002200837BD4680BD00BF990C4000B50D400064
S21440023080B483B000AF78607B68072B25D801A2D6
S21440024052F823F0650240006B0240007102400005
S214400250770240007B0240007F024000830240005D
S214400260870240004FF4FA4310E04FF400430DE09D
S2144002704FF400430AE0084B08E0084B06E0084B02
S21440028004E0074B02E0064B00E0002318460C371C
S214400290BD4680BC704700BF00093D0000127A0092
S2144002A0001BB70080B582B000AF0346FB7100BFAD
S2144002B0FB791846054B9847034683F00103DBB2AB
S2144002C0002BF5D100BF0837BD4680BDC1014000B8
S2144002D080B586B000AFF8607A603B600B46FB7234
S2144002E0FB7A18460D4B984702467B68B2FBF3F301
S2144002F07B617B693A6802FB03F37B613B68013BA9
S2144003001A04074B13407A68D2B2134343F47C5224
S214400310FB681A6000BF1837BD4680BD31024000FA
S2144003200000FF0780B582B000AF786039603B6858
S214400330002B08D1094B9847094A7B681B6843F055
S2144003400053936205E0074B9847054A7B681B6855
S214400350D36200BF0837BD4680BD00BFCD0D40000C
S21440036000040E404D0E400080B582B000AF78606D
S2144003707B68002B03D1054B9847034602E0044BAD
S2144003809847034618460837BD4680BDE50D4000F1
S214400390650E400080B582B000AF0346FB71FB7926
S2144003A0033B042B08D8FB791846064B9847FB7945
S2144003B01846054B984700E000BF00BF0837BD46CB
S2144003C080BD00BF39014000A502400080B582B024
S2144003D000AF786000BF7868044B98470346002B10
S2144003E0F9D0002318460837BD4680BD6903400053
S2144003F080B500AF0620044B9847024613469B0044
S21440040013449B00184680BD3102400080B500AFC3
S214400410024B984703465B08184680BDF1034000F0
S21440042090B583B000AF1148114B98470620114B4A
S2144004309847381D1423012206210F4CA0473B1D28
S214400440002118460D4B984700200D4B984710202A
S2144004500C4B98470C4B98470C4B9847034618460E
S214400460034B984700BF0C37BD4690BD000E27078C
S214400470052F400095034000D10240002503400070
S214400480CD034000E10B40006D2D40000D044000C0
S21440049080B485B000AFF860B9607A607B68002BA6
S2144004A003D0FB68BA685A6602E0FB68BA681A6608
S2144004B000BF1437BD4680BC704780B485B000AFDF
S2144004C0F860B9607A60FB68BA68C3F884207B68D5
S2144004D05B004FF40042B2FBF3F3013BC3F30D0263
S2144004E0FB68C3F88C2000BF1437BD4680BC7047FD
S2144004F080B487B000AFF860B9607A60FB687A680D
S2144005005A64BB68B3F1C05F4AD0B3F1C05F08D845
S214400510B3F1006F16D0B3F1805F2CD0002B69D0BA
S21440052064E0B3F1205F65D0B3F1205F03D8B3F148
S214400530005F4AD05AE0B3F1405F5BD0B3F1605FF2
S21440054058D053E0FB681B6F7B61FB681A6F7B6873
S214400550D9437B690B401A40FB681A67FB685B6FA0
S2144005607B61FB685A6F7B68D9437B690B401A40B6
S214400570FB685A673AE0FB681B6F7B617A687B6969
S2144005801A43FB681A67FB685B6F7B61FB685A6FB0
S2144005907B68D9437B690B401A40FB685A6725E065
S2144005A0FB681B6F7B61FB681A6F7B68D9437B696E
S2144005B00B401A40FB681A67FB685B6F7B617A6882
S2144005C07B691A43FB685A6710E0FB681B6F7B61C8
S2144005D07A687B691A43FB681A67FB685B6F7B61C6
S2144005E07A687B691A43FB685A6700BFFB687A687B
S2144005F05A6000E000BF1C37BD4680BC7047000014
S21440060080B584B000AFF860B9607A60B968F868C1
S214400610194B98477B6803F001031A46B968F86897
S214400620164B98477B6803F00A03002B03D0FB6801
S214400630BA681A6202E0FB68BA685A627B6803F0DE
S2144006400203002B04D0FB68BA68C3F8802008E099
S2144006507B6803F00803002B03D0FB68BA68C3F836
S2144006608420FB68BA685A61FB68BA681A6000BFA3
S2144006701037BD4680BD00BF69074000910440006A
S21440068080B584B000AFF860B9607A603B60B96806
S214400690F868124B9847BA69B968F868104B98479B
S2144006A03B68002B03D0FB68BA681A6502E0FB681B
S2144006B0BA685A657B68002B03D0FB68BA681A6331
S2144006C002E0FB68BA685A63FB68BA681A61FB685E
S2144006D0BA681A6000BF1037BD4680BD6907400043
S2144006E09104400080B485B000AFF860B9607A608D
S2144006F07B6803F01003002B20D0FB68BA68C3F871
S214400700B0207B6803F02003002B04D0FB68BA6857
S214400710C3F8D42003E0FB68BA68C3F8D0207B68EF
S21440072003F04003002B04D0FB68BA68C3F8C0202F
S21440073008E0FB68BA68C3F8C42003E0FB68BA6800
S214400740C3F8B42000BF1437BD4680BC704780B4A1
S21440075083B000AF786039607B683A681A6400BF3F
S2144007600C37BD4680BC704780B483B000AF78601D
S21440077039607B683A685A6400BF0C37BD4680BC17
S214400780704780B483B000AF78607B68DB6C1846F7
S2144007900C37BD4680BC704780B483B000AF7860ED
S2144007A07B689B6C18460C37BD4680BC7047000083
S2144007B080B584B000AF78607868084B9847F8609A
S2144007C07B6803F01F03012202FA03F31A46FB6814
S2144007D01A6300BF1037BD4680BD00BFC109400048
S2144007E080B584B000AF78607868084B9847F8606A
S2144007F07B6803F01F03012202FA03F31A46FB68E4
S2144008005A6300BF1037BD4680BD00BFC1094000D7
S21440081090B587B002AF786039607868634B984788
S214400820F8603B6803F0F043B3F1005F67D0B3F184
S214400830005F09D8B3F1805F2BD0B3F1C05F43D0DF
S214400840B3F1006F0AD0A9E0B3F1405F7ED0B3F1B8
S214400850605F7BD0B3F1205F6CD09FE07B6803F095
S2144008601F03012202FA03F31A464FF00061F868AC
S2144008704F4B98477B6803F01F03012202FA03F3AD
S21440088019463B6803F001031A46F868494B9847F7
S21440089086E07B6803F01F03012202FA03F31A4640
S2144008A04FF08051F868424B98477B6803F01F032F
S2144008B0012202FA03F319463B6803F001031A4685
S2144008C0F8683C4B98476BE07B6803F01F030122B7
S2144008D002FA03F31A464FF0C051F868344B984773
S2144008E07B6803F01F03012202FA03F319463B68B4
S2144008F003F001031A46F8682E4B984750E07B6891
S21440090003F01F03012202FA03F31A464FF0005188
S214400910F868274B98477B6803F01F03012202FACA
S21440092003F319463B6803F001031A46F868214B67
S214400930984735E07B6803F01F03012202FA03F371
S2144009403A681946F8681C4B984729E07B6803F0DC
S2144009501F03012202FA03F319463B6803F0605373
S214400960B3F1605F0CBF01230023DBB21A463B683D
S21440097003F00403002B14BF01230023DBB2184608
S2144009803B6803F00103002B14BF01230023DBB2B6
S21440099000930346F868094CA04701E0002300E0B6
S2144009A0012318461437BD4690BD00BFC10940001C
S2144009B0F1044000910440000106400081064000DA
S2144009C080B485B000AF78607B685B0903F50013A0
S2144009D003F207735B02FB60FB6818461437BD469C
S2144009E080BC704780B483B000AF78607B68D3F833
S2144009F0503143F001027B68C3F85021034B01227B
S214400A001A6000BF0C37BD4680BC7047AC0A002059
S214400A1080B483B000AF78607B68D3F8503123F061
S214400A2001027B68C3F85021034B00221A6000BFC6
S214400A300C37BD4680BC7047AC0A002080B584B0F9
S214400A4000AF7860396078682C4B9847F8607868D3
S214400A502B4B98470246FB681340FB60FB68002B15
S214400A603CD00023BB6034E0264ABB681B011344DD
S214400A701A683B689A4226D1224ABB681B01134437
S214400A8004331A68FB681340002B1CD01D4ABB6811
S214400A901B0113440C331B681A49BA6812010A44F6
S214400AA010681849BA6812010A440432126811469E
S214400AB09847144ABB681B01134404331B68DB4346
S214400AC0FA681340FB60BB680133BB60BB68062B0B
S214400AD003D8FB68002BC7D100E000BF0A4B1B6859
S214400AE0002B07D0094B1B68002B03D0074B1B6815
S214400AF07868984700BF1037BD4680BD83074000E2
S214400B0099074000DC090020AC0A0020500A00206B
S214400B1080B586B000AFF860B9607A603B60214B24
S214400B201B68062B01D9012338E00023FB7511E032
S214400B30FB7D1B011C4A13443B613B691A68BB683A
S214400B409A4204D13B695A687B689A4208D0FB7D3A
S214400B500133FB75FA7D134B1B689A42E8D900E0D7
S214400B6000BF3B69BA681A603B697A685A603B695D
S214400B703A689A603B693A6ADA60FA7D094B1B68C4
S214400B8001339A4204D1074B1B680133054A136070
S214400B903A687968F868054B98470023184618372E
S214400BA0BD4680BD4C0A0020DC090020E50640001A
S214400BB080B500AF0B210248024B984700BF80BD6E
S214400BC0000E0E403D0A400080B500AF0C210248A2
S214400BD0024B984700BF80BD00100E403D0A4000C3
S214400BE080B485B000AF78601C491C4B1B6B23F06B
S214400BF070027B6813430B634FF40063FB6007E0AF
S214400C00FB68002B01D1012323E0FB68013BFB601E
S214400C10124B9B6E03F00803002BF1D00F4A0F4B8C
S214400C201B6B23F0030343F0020313634FF400638C
S214400C30FB6007E0FB68002B01D1012309E0FB685D
S214400C40013BFB60054B9B6E03F00803002BF1D085
S214400C50002318461437BD4680BC704700040E403B
S214400C6080B483B000AF78607B68012B07D1084A18
S214400C70074B9B6843F0254343F480139360044B33
S214400C80044A1A6000BF0C37BD4680BC704700BFA0
S214400C9010140E40080000A580B400AF094B5B69F5
S214400CA003F08003002B07D0074B9B6E03F08003B6
S214400CB0002B01D0012300E000231846BD4680BC2F
S214400CC0704700BF10140E4000040E4080B483B03E
S214400CD000AF7860184A184B1B6A43F45C1343F025
S214400CE00803136200BF144B9B6E03F40033002BC3
S214400CF0F9D01149104B1B6A23F45C1323F07003A0
S214400D007A68134343F45C130B6200BF0A4B9B6E36
S214400D1003F40033002BF9D0074A074B1B6A23F035
S214400D209B7323F4803343F45C13136200BF0C3789
S214400D30BD4680BC704700BF00040E4080B483B000
S214400D4000AF786039607B68002B08D01649164B98
S214400D501B6A164A1A40164B13430B621EE0124992
S214400D60114B1B6A23F45C1323F003033A68120208
S214400D7092B2134343F45C1343F001030B6200BF8B
S214400D80094B9B6E03F00103002BF9D0064A064B35
S214400D901B6A43F09B7343F48033136200BF0C37E7
S214400DA0BD4680BC704700BF00040E40FCFFC8FE36
S214400DB00200370180B400AF034B9B6E03F48033D0
S214400DC01846BD4680BC704700040E4080B400AF55
S214400DD0034B4FF000529A6200BFBD4680BC70473E
S214400DE000040E4080B400AF034B9B6E03F002033A
S214400DF01846BD4680BC704700040E4080B584B09F
S214400E0000AFF860B9607A600D4B98470D487B6834
S214400E10DAB2BB681B0203F47C531A43FB6819041E
S214400E20094B0B401343C36200BF064B9B6E03F057
S214400E300403002BF9D000BF1037BD4680BD00BF6D
S214400E404D0E400000040E400000FF0780B400AF87
S214400E50034B0022DA6200BFBD4680BC704700BF2D
S214400E6000040E4080B400AF034B9B6E03F00403B7
S214400E701846BD4680BC704700040E4080B483B020
S214400E8000AF78607B68222B01D901232FE07B6876
S214400E901F2B13D8184B9A6901217B6801FA03F37C
S214400EA01A4001217B6801FA03F39A421ED0124A87
S214400EB001217B6801FA03F3136117E07B68203B4E
S214400EC07B600D4BD3F8082101217B6801FA03F3C0
S214400ED01A4001217B6801FA03F39A4206D0064A7B
S214400EE001217B6801FA03F3C2F80031002318465B
S214400EF00C37BD4680BC704700040E4080B487B0B7
S214400F0000AFF860B9607A60FA68BB689B0113442A
S214400F107B617B6902221A607B694FF0FF329A62DE
S214400F207B691B6A7B697A685A6000BF1C37BD467E
S214400F3080BC704780B483B000AF786039607A6810
S214400F403B689B01134405221A6000BF0C37BD4620
S214400F5080BC704780B485B000AFF860B9607A60F6
S214400F60FA68BB689B0113441C337A681A6000BF5A
S214400F701437BD4680BC704780B487B000AFF86079
S214400F80B9607A60FA68BB689B0113447B617B69F1
S214400F907A685A6200BF1C37BD4680BC704780B432
S214400FA085B000AF786039607A683B689B0113442F
S214400FB0FB60FB681B6A18461437BD4680BC70470A
S214400FC080B48DB000AFF860B9607A603B600223B1
S214400FD03B6108237B612023BB618023FB61BB6BA5
S214400FE0DB0B3B620023FB621AE0FB6A9B0007F1C7
S214400FF03002134453F8203CBA68B2FBF3F3BB62AA
S214401000BB6A1B0C7B62FA68BB6A9A4201D9002312
S21440101023E0FA687B6A9A4206D2FB6A0133FB6297
S214401020FB6A042BE1D900E000BFFB6A042B01D920
S214401030002312E07B68002B08D0FB6A9B0007F178
S2144010403002134453F8202C7B681A603B68002B10
S21440105002D03B68FA6A1A60012318463437BD4608
S21440106080BC704780B483B000AF78607B6808224D
S2144010701A607B6820221A607B6804221A6000BFD0
S2144010800C37BD4680BC704780B584B000AF7860F2
S21440109039600023FB607B684FF0FF329A627B68C2
S2144010A01B6A78680E4B984778680E4B98473B68A3
S2144010B059683B681B681A4678680B4B9847034646
S2144010C0012B01D10123FB603B685B7A012B02D1E7
S2144010D07B6840221A60FB6818461037BD4680BDC4
S2144010E02514400065104000ED10400080B489B0E3
S2144010F000AFF860B9607A600023FB61BB68344A91
S214401100934201D901235DE0BB68324A934237D906
S2144011107B68314AA2FB03239B0B043B7B61BA6886
S2144011202E4B13449B007A68B2FBF3F3043B3B61BF
S21440113005E0FB690133FB617B695B087B617B698A
S214401140FF2B09D9FB69062BF3D905E0FB69013370
S214401150FB613B695B083B613B69FF2B02D9FB693E
S214401160062BF3D97B69DAB23B691B029BB21A4362
S214401170FB691B0403F4E0231A43FB681A6120E072
S214401180BB685B007A68B2FBF3F3043BBB6105E0E7
S214401190FB690133FB61BB695B08BB61BB69FF2B25
S2144011A002D9FB69062BF3D9BB69DAB2BB691B02CD
S2144011B09BB21A43FB691B0403F4E0231A43FB6803
S2144011C01A61002318462437BD4680BC704700BFCE
S2144011D0801A060000DC0500F11976050012FD3F76
S2144011E080B485B000AF786039603B68002B01D191
S2144011F000231DE07B681B78FB603B68012B09DD04
S214401200FB681B02FB607B6801331B781A46FB6851
S2144012101343FB603B68022B09DDFB681B02FB6047
S2144012207B6802331B781A46FB681343FB60FB68F7
S21440123018461437BD4680BC7047000080B588B05D
S21440124000AF786039603B68DB68FB613B689B6851
S214401250BB610023FB7547F230533B61FB69002BB3
S21440126001D1012369E07B6800225A603B681B7C01
S2144012701B0403F4FE023B685B681B0203F44073E6
S214401280134343F480527B685A607B680022DA60DE
S2144012903A683B685B68194610462A4B98470246B0
S2144012A07B68DA60FB69012B05D17B6803221A60F4
S2144012B00123FB7534E07B6801221A600023FB752E
S2144012C02EE07B681B6AFB60FB6803F48073002B90
S2144012D001D0052331E03B695A1E3A61002B01D10B
S2144012E009232AE0FB69012B07D1FB7D002B04D1A3
S2144012F07B6802221A600123FB75FB6803F0020339
S214401300002B00D10CE0BB695A1CBA617A68126B9C
S214401310D2B21A70FB69013BFB6147F230533B6126
S214401320FB69002BCDD100BF7B681B6A03F001032D
S214401330002BF9D07B681B6A002318462037BD4631
S21440134080BD00BFE111400080B586B000AF786038
S21440135039603B68DB687B613B689B683B617B69C7
S214401360002B01D1012356E07B6800225A603B687F
S2144013701B7C1B0403F4FE023B685B681B0203F401
S21440138040731A437B685A607B680022DA603A688A
S2144013903B685B6819461046214B984702467B6877
S2144013A0DA6019E07B681B6AFB60FB6803F48073B5
S2144013B0002B01D005232EE0FB6803F00403002B2E
S2144013C000D109E03B695A1C3A611B781A467B6893
S2144013D05A637B69013B7B617B69002BE2D17B686A
S2144013E01B6AFB60FB6803F48073002B01D0052367
S2144013F011E0FB6803F00403002B00D1EFE700BFC9
S2144014007B6802221A6000BF7B681B6A03F00103F8
S214401410002BF9D0002318461837BD4680BD00BFC4
S214401420E111400080B483B000AF78607B688022D2
S2144014301A607B681B6B00BF0C37BD4680BC70478C
S21440144080B489B000AFF860B9607A60BB681A01B2
S2144014507B689A4202D81023FB6101E00823FB61B7
S2144014607B68DA00FB69B96801FB03F35B081A4442
S214401470FB69B96801FB03F3B2FBF3F3BB61BB69DD
S214401480DB087B61BB6903F007033B617B69002B8C
S21440149003D07B69B3F5803F01D301230FE0FB699E
S2144014A0082B05D1FB685B6843F40022FB685A6052
S2144014B03B691A047B691A43FB681A620023184684
S2144014C02437BD4680BC704780B582B000AF786098
S2144014D078680F4B98477B6800225A607B680022EA
S2144014E05A627B6800229A6278680A4B9847786806
S2144014F0094B98477868094B98477868084B98474F
S2144015007868084B984700BF0837BD4680BD00BF87
S21440151079174000051640003516400097164000E3
S214401520CB164000B116400080B584B000AFF860DE
S214401530B9607A60F8681A4B98471A4B00221A60CE
S214401540BB68002B09D0BB681B687A681946F868E8
S214401550154B98470346002B01D001231BE0BB6880
S2144015605A68BB689B681A43BB681B691A43BB68CA
S214401570DB681A430B4B1B6813430A4A1360094B3C
S2144015801B68084A1360FB685A68064B1B681A4378
S214401590FB685A60002318461037BD4680BD00BF22
S2144015A0C9144000540A00204114400080B584B05D
S2144015B000AFF860B9607A607A68B968F8680A4B34
S2144015C098470346002B01D0012308E0FB685B6880
S2144015D023F00F0343F00202FB685A6000231846CC
S2144015E01037BD4680BD00BF2915400080B483B08B
S2144015F000AF78607B6840221A6000BF0C37BD465B
S21440160080BC704780B483B000AF78607B68882227
S2144016101A6000BF0C37BD4680BC704780B483B0AC
S21440162000AF78607B6810221A6000BF0C37BD465A
S21440163080BC704780B483B000AF78607B6824225B
S2144016401A6000BF0C37BD4680BC704780B483B07C
S21440165000AF786039607B683A689A6000BF0C37A4
S214401660BD4680BC704780B483B000AF78603960B8
S2144016707B683A68DA6000BF0C37BD4680BC70476E
S21440168080B483B000AF78607B685B6918460C37DF
S214401690BD4680BC704780B483B000AF78607B683E
S2144016A04FF480721A6000BF0C37BD4680BC70474E
S2144016B080B483B000AF78607B684FF400321A6025
S2144016C000BF0C37BD4680BC704780B483B000AFC7
S2144016D078607B684FF400221A6000BF0C37BD4626
S2144016E080BC704780B483B000AF7860396000BF7C
S2144016F07B685B6903F00203002BF9D03B68C3F3B9
S21440170008027B68DA61002318460C37BD4680BC69
S2144017107047000080B582B000AF7860396007E05F
S2144017203B685A1C3A601B7819467868044B9847C1
S2144017303B681B78002BF3D100BF0837BD4680BD01
S214401740E516400080B483B000AF786039607B68AF
S2144017505B6903F00103002B01D1012306E07B689F
S2144017609B69C3F308023B681A60002318460C378F
S214401770BD4680BC7047000080B483B000AF786040
S2144017807B68044AC3F8E42000BF0C37BD4680BCE3
S214401790704700BF0041535580B483B000AF7860B7
S2144017A07B684FF400425A6000BF0C37BD4680BC91
S2144017B07047000080B483B000AF0346FB71084911
S2144017C097F907305B09FA7902F01F02012000FA08
S2144017D002F241F8232000BF0C37BD4680BC70475C
S2144017E000E100E080B483B000AF0346FB710949D6
S2144017F097F907305B09FA7902F01F02012000FAD8
S21440180002F2203341F8232000BF0C37BD4680BC8F
S214401810704700BF00E100E080B483B000AF0346ED
S214401820FB71094997F907305B09FA7902F01F0204
S214401830012000FA02F2603341F8232000BF0C3743
S214401840BD4680BC704700BF00E100E080B483B076
S21440185000AF03463960FB7197F90730002B0BDA6F
S2144018600D49FB7903F00F03043B3A68D2B21201EC
S214401870D2B20B441A7609E0084997F907303A681D
S214401880D2B21201D2B20B4483F8002300BF0C3709
S214401890BD4680BC704700BF00ED00E000E100E0C0
S2144018A080B483B000AF78607B68072B25D801A250
S2144018B052F823F0D5184000DB184000E1184000ED
S2144018C0E7184000EB184000EF184000F3184000BF
S2144018D0F71840004FF4FA4310E04FF400430DE091
S2144018E04FF400430AE0084B08E0084B06E0084B7C
S2144018F004E0074B02E0064B00E0002318460C3796
S214401900BD4680BC704700BF00093D0000127A000B
S214401910001BB70080B500AF0620044B9847024630
S21440192013469B0013449B00184680BDA1184000F8
S21440193080B500AF024B984703465B08184680BD0B
S2144019401519400080B483B000AF78603960044B0E
S21440195001221A6000BF0C37BD4680BC704700BFEE
S214401960580A002090B583B002AF084B009301237D
S2144019704FF400420B210648064CA0470B20064B6E
S214401980984700BF0437BD4690BD00BF451940008C
S214401990000E0E40110B4000B517400080B584B0D5
S2144019A000AF13200E4B98470E4B984703467B607C
S2144019B00D4BBB603B1D19460C480D4B98471320FA
S2144019C00C4B984713200C4B9847002113200B4B89
S2144019D0984713200A4B984700BF1037BD4680BD36
S2144019E07D0E400031194000801A060000800140FC
S2144019F089104000E5174000191840004D18400077
S214401A00B517400080B582B000AF7860396038685E
S214401A101A4B98477B68D3F8503123F001027B6815
S214401A20C3F850217B68D3F8583143F008027B68EE
S214401A30C3F858217B68D3F8503123F030027B68D6
S214401A40C3F850217B68D3F8503143F020027B68BE
S214401A50C3F850217B68D3F8503123F400727B687A
S214401A60C3F850217B68D3F8503123F480627B68FA
S214401A70C3F8502100BF0837BD4680BD7D0E4000EC
S214401A8080B485B000AFF860B9607A60FB68D3F880
S214401A906C31002B12D1FB68D3F87C31002B0DD172
S214401AA0BA68FB68C3F86821FB687A68C3F86C219B
S214401AB0FB680122C3F8882101230FE0FB68D3F8B6
S214401AC07C31002B09D1BA68FB68C3F87821FB68E3
S214401AD07A68C3F87C21012300E0002318461437B7
S214401AE0BD4680BC704700002DE9F84F00AF01228C
S214401AF0012107202E4B98472E4B98472E4B00220D
S214401B001A600B212D482E4B98472E4B23225A64A1
S214401B102C4B4FF400721A6000BF2A4B9B6803F4AC
S214401B200073002BF9D0284B9847284B984703461C
S214401B3019464FF000020B461446DB1844EB0404EB
S214401B405B1844EB02044FEA041B4BEA137B4FEA54
S214401B50031A53465C465B1A64EB02044FEAC40918
S214401B6049EA53794FEAC30843464C465B1A64EB4E
S214401B700204E60046EA5376DD002B463446194614
S214401B80224643F2AF634FF00004CD1842EB040602
S214401B90284631460E4C43F2B0624FF00003A04751
S214401BA003460C4618460B4B984700BFBDE8F88FD7
S214401BB0FD0D400065194000580A0020000E0E40FA
S214401BC0051A400000040E409D194000311940009F
S214401BD0B93340000100002080B500AF00BF0C487C
S214401BE00C4B98470346012BF9D0002108480A4B76
S214401BF0984701210648084B984702210448064B5F
S214401C00984704210248044B984700BF80BD00BF58
S214401C1000800140A52040003121400080B582B0C0
S214401C2000AF4FF400411648164B984700BF164B7E
S214401C301B68002BFBD04FF400411148134B9847CC
S214401C400F48134B984746F2A81212490C48124BBD
S214401C50984700BF0A4BD3F8603103F00803082BBF
S214401C60F8D107480D4B9847074B00221A600C4B9B
S214401C7098470346FB71FB7918460837BD4680BD3A
S214401C80000E0E404F074000580A002069074000EB
S214401C90E5094000B80A0020811A4000110A4000B9
S214401CA0A51C400080B483B000AF244B00221A60CD
S214401CB0234B00221A600023FB7100233B602CE07C
S214401CC0204A3B6813441B78DBB2FF2B0BD13B68A2
S214401CD001331C4AD35CDBB2D82B04D1174A3B688D
S214401CE013600123FB71174A3B6813441B78DBB231
S214401CF0FF2B0FD13B680133124AD35CDBB2D92BA2
S214401D0008D1FB79002B05D03B6802330C4A1360A0
S214401D1001230EE03B6801333B603B6801330A4ACF
S214401D209342CDD9054B00221A60054B00221A601B
S214401D30002318460C37BD4680BC7047B00A0020CA
S214401D40B40A0020B80A00209F86010080B483B001
S214401D5000AF78607B68072B25D801A252F823F0A5
S214401D60811D4000871D40008D1D4000931D400092
S214401D70971D40009B1D40009F1D4000A31D400036
S214401D804FF4FA4310E04FF400430DE04FF40043A5
S214401D900AE0084B08E0084B06E0084B04E0074B17
S214401DA002E0064B00E0002318460C37BD4680BCD8
S214401DB0704700BF00093D0000127A00001BB700C4
S214401DC080B500AF0620044B9847024613469B005A
S214401DD013449B00184680BD4D1D400080B500AFA3
S214401DE0024B984703465B08184680BDC11D40001D
S214401DF080B58EB000AF78600023FB600023BB60E8
S214401E00302387F834300A2387F824300123BB6216
S214401E1007F10C03FB6201233B6307F124031946D9
S214401E2078680E4B9847302387F820300B233B7456
S214401E3001237B6107F10803BB610123FB6107F1C6
S214401E40100319467868054B9847FB681A02BB682A
S214401E50134318463837BD4680BD00BF891F400033
S214401E6080B58AB000AF786000233B610023FB60FA
S214401E701C233B750123BB61302387F8243007F1D0
S214401E801003FB6101233B6207F11403194678688F
S214401E90104B98471D233B750123BB61302387F8C1
S214401EA0243007F10C03FB6101233B6207F1140366
S214401EB019467868074B98473B697F2B04D1FB68E7
S214401EC0A22B01D1002300E0012318462837BD4647
S214401ED080BD00BF891F400080B58AB000AF7860E3
S214401EE000233B610023FB600023BB6001233B755E
S214401EF00123BB61302387F8243001233B6207F17E
S214401F000C03FB6107F11403194678681C4B98478D
S214401F10AD23BB6007F10803FB6107F114031946C4
S214401F207868184B984707F11003FB6107F11403D4
S214401F3019467868124B98473A69BB689A4201D06E
S214401F40012318E007F10C03FB6107F1140319465F
S214401F5078680C4B984707F11003FB6107F11403B0
S214401F6019467868064B98473A69FB689A4201D00A
S214401F70012300E0002318462837BD4680BD00BF39
S214401F80891F4000AD1F400080B584B000AF786028
S214401F90396039687868044B9847F860FB6818469B
S214401FA01037BD4680BD00BF3D12400080B584B0AE
S214401FB000AF7860396039687868044B9847F860B5
S214401FC0FB6818461037BD4680BD00BF4913400029
S214401FD02DE9F0488AB000AF7860396000237B6214
S214401FE03B683B6248E03B6A1B78FE2B26D1294B78
S214401FF09847034619464FF000020B461446A60083
S21440200046EA93769D002B4634465B1844EB020422
S21440201043F2AF614FF0000213EB010B44EB020CAE
S214402020584661461C4C43F2B0624FF00003A0474E
S21440203003460C461846194B98471AE03B6A1B78ED
S2144020403B720123FB6030233B7601237B613B6A76
S21440205001333B6107F1080319467868104B9847EF
S214402060F8617B6A01337B62FB69082B01D1FB690F
S2144020700BE03B6A02333B623B6A1B78FF2BB2D1D4
S2144020803B6A5B78FF2BAED1002318462837BD4607
S214402090BDE8F088DD1D4000B93340000100002057
S2144020A0AD1F400080B58AB000AF7860012387F846
S2144020B0233007F10C0300221A605A609A60DA60F7
S2144020C01A61FF233B7301233B6107F123037B61C6
S2144020D00123BB6130233B7707F10C031946786830
S2144020E00F4B984700237B6278680E4B9847786280
S2144020F07B6A1B0ADBB2262B0DD178680A4B9847C1
S2144021000346002B07D17868084B98470346002BB8
S21440211001D1002300E0012318462837BD4680BD84
S214402120AD1F4000F11D4000611E4000D91E40001A
S21440213080B584B000AF78600B46FB700023FB6030
S214402140FB78112B5CD801A252F823F09521400071
S2144021509B214000A1214000A7214000AD21400026
S214402160B3214000B9214000BF214000C5214000B6
S214402170CB214000D1214000D7214000DD21400046
S214402180E3214000E9214000EF214000F5214000D6
S214402190FB214000224BFB6033E0224BFB6030E0EB
S2144021A0214BFB602DE0214BFB602AE0204BFB607F
S2144021B027E0204BFB6024E01F4BFB6021E01F4BD9
S2144021C0FB601EE01E4BFB601BE01E4BFB6018E0F6
S2144021D01D4BFB6015E01D4BFB6012E01C4BFB608B
S2144021E00FE01C4BFB600CE01B4BFB6009E01B4BFD
S2144021F0FB6006E01A4BFB6003E01A4BFB6000E016
S21440220000BFFB68002B05D0F9687868164B9847E6
S214402210002300E0012318461037BD4680BD00BFAE
S214402220E482400064844000788440008C8440000F
S214402230DC8440003085400084854000D4854000E2
S214402240288640007C8640006C8740005C884000C2
S2144022504C8940003C8A4000308B4000248C400033
S214402260188D40000C8E4000D11F400080B483B0D3
S21440227000AF0346FB71084997F907305B09FA79C6
S21440228002F01F02012000FA02F241F8232000BFAC
S2144022900C37BD4680BC704700E100E080B483B098
S2144022A000AF78607B68072B25D801A252F823F050
S2144022B0D1224000D7224000DD224000E3224000E9
S2144022C0E7224000EB224000EF224000F32240008D
S2144022D04FF4FA4310E04FF400430DE04FF4004350
S2144022E00AE0084B08E0084B06E0084B04E0074BC2
S2144022F002E0064B00E0002318460C37BD4680BC83
S214402300704700BF00093D0000127A00001BB7006E
S21440231080B500AF0620044B9847024613469B0004
S21440232013449B00184680BD9D22400080B500AFF8
S214402330024B984703465B08184680BD1123400071
S21440234080B582B000AF002109480A4B98477860B4
S2144023507B6803F01003002B06D0074B1B78DBB2DC
S2144023600133DAB2044B1A7000BF0837BD4680BD51
S214402370000001409F0F40005891012090B587B063
S21440238002AF184B9847F8601720174B9847391DEF
S21440239007F10802FB6800930B46F9680120134CCE
S2144023A0A0477B6843F480431A4600211048114BEF
S2144023B09847BB68FA68B2FBF3F31A4600210C480C
S2144023C00D4B984717200D4B984710220021084880
S2144023D00B4B9847002106480A4B984700BF1437D6
S2144023E0BD4690BD2D2340007D0E4000C10F4000ED
S2144023F000000140FD0E4000550F40006D22400099
S214402400790F4000350F400080B483B000AF0346DC
S214402410FB71084997F907305B09FA7902F01F0209
S214402420012000FA02F241F8232000BF0C37BD46D7
S21440243080BC704700E100E080B483B000AF7860B5
S2144024407B68072B25D801A252F823F06D24400064
S21440245073244000792440007F24400083244000B9
S214402460872440008B2440008F2440004FF4FA43DA
S21440247010E04FF400430DE04FF400430AE0084BF1
S21440248008E0084B06E0084B04E0074B02E0064B2A
S21440249000E0002318460C37BD4680BC704700BF9E
S2144024A000093D0000127A00001BB70080B500AF5F
S2144024B00620044B9847024613469B0013449B0055
S2144024C0184680BD3924400080B500AF024B98477F
S2144024D003465B08184680BDAD24400080B500AF7B
S2144024E0024B984703465B08184680BDAD24400023
S2144024F080B582B000AF78607868034B984700BFDD
S2144025000837BD4680BD00BF7D0E400080B582B016
S21440251000AF0D480D4B984778607B6803F48053B6
S214402520002B0CD00A4908480A4B98470A4B012210
S2144025301A70074B1B68DBB21846084B984700BF1B
S2144025400837BD4680BD00BF0040024081164000AF
S2144025505C0A002045174000650A002061254000BF
S21440256080B483B000AF0346FB71064B1B685A1C11
S21440257004490A600449FA79CA5400BF0C37BD467C
S21440258080BC7047600A00200CC8012080B584B02B
S21440259000AF786039600D4B01221A700C4B98479B
S2144025A00023FB6007E00B4AFB68134400221A70C6
S2144025B0FB680133FB60FB68B3F57A7FF3DB064BC1
S2144025C000221A6000BF1037BD4680BD640A002056
S2144025D0DD2540000CC80120600A002080B500AF11
S2144025E025492648264B98470346002B05D0254BC1
S2144025F001221A70244B01221A7024491F48204B8E
S21440260098470346002B02D0214B00221A702149DE
S2144026101A481B4B98470346002B02D01C4B0022FF
S2144026201A701D491548164B98470346002B02D092
S214402630174B01221A7019491048114B9847034608
S214402640002B02D0124B00221A702C210B48144B40
S21440265098470346002B02D00D4B01221A703221B8
S21440266006480F4B98470346002B02D0064B0122E4
S2144026701A7000BF80BD00BFFC8E40000CC8012011
S214402680993B40006C0A00206E0A00200C8F4000E8
S2144026906D0A0020148F40002C8F4000408F400071
S2144026A00138400080B483B000AF78603960044B96
S2144026B001221A6000BF0C37BD4680BC704700BF81
S2144026C0680A0020B0B586B000AF1D4905201D4BF6
S2144026D098471B4906201B4B984719490820194B19
S2144026E09847194B3C461D460FCD0FC495E803004E
S2144026F084E80300154B98470246154B1A600E2097
S214402700144B9847124B1A683B4619461248134BCF
S21440271098474FF0FF311048114B98470E48114BE1
S21440272098470D48104B984701210B480F4B984748
S2144027300E200F4B984700BF1837BD46B0BD00BFB0
S2144027400100000811084000588F4000DD2440007A
S214402750700A0020F124400000400240AD154000C1
S21440276067164000ED1540001D1640004D1640000F
S2144027700924400090B583B002AF0C200B4B98471D
S2144027800B4B009371234FF480620C2109480A4C8E
S214402790A0470C20094B98474FF480610548084BEA
S2144027A0984700BF0437BD4690BD00BF7D0E400031
S2144027B08D25400000100E40110B400009244000BB
S2144027C04F07400090B583B002AF0B200D4B9847A3
S2144027D00A2216210C480D4B98470D4B009359235F
S2144027E04FF480020B2108480A4CA0470B200A4BA6
S2144027F098474FF480010448084B984700BF043779
S214402800BD4690BD7D0E4000000E0E40BB0440000D
S214402810A5264000110B4000092440004F07400009
S21440282080B582B000AF78600B46FB7079680D4883
S2144028300D4B98470D4B00221A7008E00C4B1B7846
S214402840DBB2002B03D00A4B00221A7005E0074B80
S2144028501B78DBB2FA789A42F0D800BF0837BD46FC
S21440286080BD00BF0040024015174000589101202F
S214402870640A0020F0B59DB000AF504B9847034621
S2144028801A464F4B1A704F4B1A684F4B1B68D31A59
S2144028904E4A13600023FB66494B1B78002B00F022
S2144028A088803B46642200211846494B9847474B50
S2144028B01A683B4647491846474B98473B460221CD
S2144028C01846464B9847464B00221A70002387F816
S2144028D06B3008E0424B1B78DBB2032B03D9012355
S2144028E087F86B3007E03F4B1B78DBB283F0010381
S2144028F0DBB2002BEED197F86B3083F00103DBB2EE
S214402900002B22D0304B1B687B6618E0364A7B6E25
S21440291013441B78DBB219463448354B9847324A45
S2144029207B6E13441B78D9B2324AFB6E13440A4678
S2144029301A70FB6E0133FB667B6E01337B66214B60
S2144029401B685A1C7B6E9A42E0D2264B00221A70B5
S214402950294B9847034619464FF000020B4614464B
S214402960DB1844EB04045B1844EB0204E60046EA3A
S2144029705376DD002B4634465B1844EB0204DB18E6
S21440298044EB04041946224643F2AF634FF000047A
S214402990CD1842EB040628463146184C43F2B06246
S2144029A04FF00003A04703460C461846144B984782
S2144029B000E000BF7437BD46F0BD00BFA51C400018
S2144029C0F8CB0120B40A0020B00A0020F4CB012046
S2144029D019374000708F4000B5374000212840002E
S2144029E0589101206C0A0020B80A0020004002409E
S2144029F0E51640005C910120C9244000B9334000F0
S214402A000100002080B5ADF55A5D8CB000AF0521C1
S214402A101448154B984707F13003303B134A144986
S214402A201846144B984707F13003303B1946124876
S214402A30124B984712491048104B984711490E4878
S214402A400E4B984710490C480C4B984743F2B062DF
S214402A50002106480D4B984700BF07F55A573037B8
S214402A60BD4680BD848F4000212840005C910120F7
S214402A70B88F4000B5374000004002401517400070
S214402A80DC8F4000F08F4000009040001937400037
S214402A9080B582B000AF78607868034B984700BF37
S214402AA00837BD4680BD00BF7D0E400080B500AFF4
S214402AB00B20034B98470C20014B984700BF80BD26
S214402AC0912A400080B48DB000AF78600B46FB7012
S214402AD07B68FB62FB7887F82B30FB6A7B627B6AFD
S214402AE03B623B6A5B09FB61FB6903F5001303F23B
S214402AF007735B02BB6197F82B30012B09D1FB6A49
S214402B007B617B6903F01F0301229A40BB691A610F
S214402B100CE097F82B30002B08D1FB6A3B613B69F1
S214402B2003F01F0301229A40BB695A61FB6AFB60AF
S214402B30FB6803F01F0301229A40BB69C3F8A0203C
S214402B4000BF3437BD4680BC704780B48BB000AF02
S214402B5078600B46FB707B687B62FB7887F8233097
S214402B607B6AFB61FB69BB61BB695B097B617B6917
S214402B7003F5001303F207735B023B6197F82330BB
S214402B80002B09D07B6AFB60FB6803F01F03012221
S214402B909A403B691A6308E07B6ABB60BB6803F0F7
S214402BA01F0301229A403B695A6300BF2C37BD463B
S214402BB080BC704780B500AF334B98470121142046
S214402BC0324B984701211420314B98470121202051
S214402BD02E4B9847002120202D4B984700212A2035
S214402BE02A4B984701212A20294B98470021162036
S214402BF0264B984701211620254B98470121072050
S214402C00224B984700210720214B98474FF0006100
S214402C100420204B98474FF0006103201D4B9847F7
S214402C204FF0805111201B4B98474FF060511420B5
S214402C30184B984771211020164B984771210F204A
S214402C40144B984714491820124B9847124919209C
S214402C50104B984710491A200E4B98470E491B2098
S214402C600C4B98470C491C200A4B98470A491D2094
S214402C70084B984708491E20064B984706491F2090
S214402C80044B984700BF80BDAD2A4000C52A40008F
S214402C904B2B4000110840000100002880B584B04E
S214402CA000AF274BFB60274BBB60FA68BB689A4275
S214402CB00DD907E0BB681A1DBA60FA68111DF960A5
S214402CC012681A60BB68204A9342F3D320E0FA6841
S214402CD0BB689A421CD21C4A1A4BD31A7B60FA68CD
S214402CE07B681344043BFB60BA687B681344043B30
S214402CF0BB600AE0BB681A1FBA60FA68111FF96029
S214402D0012681A607B68043B7B607B68002BF1D1BD
S214402D1000BF0E4BBB6004E0BB681A1DBA600022C1
S214402D201A60BB680A4A9342F6D30A4BFB600A4ACB
S214402D30FB689360094B9847094B9847FEE700BFEE
S214402D401493400000000020C0090020C009002065
S214402D5024CC01200000400000ED00E0C9364000D1
S214402D60E530400080B400AFFEE7000080B400AF1E
S214402D705D4B1B6B03F00303032B00F2968001A20E
S214402D8052F823F0952D4000B52D4000FF2D400011
S214402D90FF2D4000554B5B6903F08003002B04D0A9
S214402DA0534B4FF400421A6080E0514B4FF4FA42C6
S214402DB01A607BE04C4B1B6A03F08073002B03D0F9
S214402DC04B4B4C4A1A6071E0494B4B4A1A60464B93
S214402DD01B6A03F07003102B08D0202B0AD0002B60
S214402DE000D00BE0424B444A1A6007E0404B434A4F
S214402DF01A6003E03E4B3F4A1A6000BF56E03A4B2B
S214402E001B6A03F08073002B03D0394B394A1A6093
S214402E1019E0374B384A1A60334B1B6A03F070038D
S214402E20102B08D0202B0AD0002B00D00BE0304BC4
S214402E30314A1A6007E02E4B304A1A6003E02C4BAA
S214402E402C4A1A6000BF284B1B6B03F00303022B6F
S214402E5015D1254B9B6A1B0CC3F30A030133244A46
S214402E60126802FB03F3224A13601F4B9B6ADBB2D5
S214402E701F4A1268B2FBF3F31D4A136016E01A4B62
S214402E80DB6A1B0CC3F30A030133194A126802FBC0
S214402E9003F3174A1360144BDB6ADBB2144A12681A
S214402EA0B2FBF3F3124A136000E000BF0E4B1B6BFD
S214402EB003F07003702B08D10D4B1B68104AA2FB21
S214402EC003235B080A4A13600AE0074B1B6B1B0987
S214402ED003F00703064A126822FA03F3044A136013
S214402EE000BFBD4680BC704700040E4010140E4024
S214402EF00C000020001BB70000093D0000127A00BD
S214402F00ABAAAAAA80B483B000AF78607B68184AA0
S214402F10934204D8174B4FF080621A6023E07B68D8
S214402F20154A934203D8134B144A1A601BE07B6839
S214402F30134A934203D80F4B124A1A6013E07B6839
S214402F40114A934203D80B4B104A1A600BE07B6839
S214402F500F4A934204D8074B4FF004221A6002E00F
S214402F60044B0C4A1A6000BF0C37BD4680BC704705
S214402F70FF2C3101000A0E40FF5962020001000496
S214402F80FF86930300020004FFB3C404000300045A
S214402F90FFE0F5050005000480B485B000AF78601A
S214402FA0104BFB60104B1B68002B02D10E4B0F4A98
S214402FB01A600D4B1B68BB60BA687B681A44FB6896
S214402FC09A4202DD4FF0FF3306E0074B1A687B68F3
S214402FD01344054A1360BB6818461437BD4680BC88
S214402FE0704700BFFCFF0120740A002028FC012027
S214402FF080B483B000AF78607B68072B25D801A2E9
S21440300052F823F0253040002B304000313040004D
S214403010373040003B3040003F30400043304000B7
S214403020473040004FF4FA4310E04FF400430DE0C1
S2144030304FF400430AE0084B08E0084B06E0084B14
S21440304004E0074B02E0064B00E0002318460C372E
S214403050BD4680BC704700BF00093D0000127A00A4
S214403060001BB70080B500AF0620044B98470246C9
S21440307013469B0013449B00184680BDF12F40002A
S21440308080B500AF024B984703465B08184680BDA4
S2144030906530400080B489B000AF78607B68FB61E3
S2144030A0FB69BB61BB697B617B695B093B613B69D3
S2144030B003F5001303F207735B02DA6BFB69FB60F0
S2144030C0FB6803F01F03012101FA03F31340002BB2
S2144030D014BF01230023DBB218462437BD4680BC0C
S2144030E0704700002DE9F04F85B000AF924B9847EF
S2144030F09248934B9847934B9847934B00221A70AD
S214403100924B00221A70924B00221A70914B00226A
S2144031101A70914B00221A60904B9847904B9847F4
S214403120904B9847904B98472020904B9847904B11
S2144031309847034619464FF000020B461446DB18E4
S21440314044EB04045B1844EB0204660146EAD3668B
S2144031505D015B1944EB06045B1844EB020443F242
S214403160AF614FF000025D1844EB02062846314638
S214403170804C43F2B0624FF00003A04703460C4633
S21440318018467D4B984720207C4B98470AE0724B68
S2144031901B68012B06D17A497A487B4B98476E4B81
S2144031A000221A602B20794B9847034683F0010390
S2144031B0DBB2002BEBD1764B9847764B98470321F2
S2144031C07548764B984703217548744B9847624B31
S2144031D01B68002B11D005216948704B98475E4B01
S2144031E000221A6000BF2B20684B9847034683F0A6
S2144031F00103DBB2002BF6D1E9E7534B1B78DBB279
S21440320083F00103DBB2002B42D02020574B984777
S214403210574B9847034619464FF000020B46144654
S214403220DB1844EB04045B1844EB02044FEA4419F1
S21440323049EAD3694FEA431813EB080344EB090401
S2144032405B1844EB020443F2AF614FF000025D1896
S21440325044EB020628463146464C43F2B0624FF0F5
S2144032600003A04703460C461846434B9847202089
S214403270424B984703E005214A48484B9847324B13
S2144032801B78DBB283F00103DBB2002BF3D19EE761
S2144032902E4B1B78DBB283F00103DBB2002B44D00D
S2144032A0052141483D4B9847314B984703461946C0
S2144032B04FF000020B4614464FEA441B4BEAD36BD2
S2144032C04FEA431A53465C465B1A64EB0204A0007E
S2144032D0F860F86840EA9370F8609B00BB60D7E9F6
S2144032E002345B1844EB0204E2007A607A6842EAF1
S2144032F053727A60DB003B60D7E9003419462246B9
S21440330043F2AF634FF00004CD1842EB0406284664
S2144033103146184C43F2B0624FF00003A0470346D4
S2144033200C461846144B984751E7204B9847204B7D
S2144033309847204B98474AE72104400050140E40D7
S21440334099174000B52B40006E0A00206D0A0020F9
S214403350640A00206C0A0020680A00207D23400092
S214403360C526400075274000C5274000E1074000BD
S21440337081304000B933400001000020B1074000D2
S2144033800C90400000400240151740009530400029
S214403390E91A4000D91B4000189040002128400000
S2144033A02C90400040904000509040001D1C400033
S2144033B075284000052A400053B94AB9002908BF7D
S2144033C000281CBF4FF0FF314FF0FF3000F07AB9B5
S2144033D0ADF1080C6DE904CE00F006F8DDF804E027
S2144033E0DDE9022304B070472DE9F0478C460D46D0
S2144033F00446089E002B51D18A4217466DD9B2FA30
S21440340082FEBEF1000F0BD0CEF1200C01FA0EF575
S21440341020FA0CFC02FA0EF74CEA050C00FA0EF401
S2144034204FEA174A250CBCFBFAF81FFA87F90AFB45
S21440343018CC45EA0C4508FB09F3AB420AD9ED190E
S21440344008F1FF3280F02381AB4240F22081A8F1A0
S21440345002083D44ED1AA4B2B5FBFAF00AFB10553B
S21440346044EA054400FB09F9A14509D9E41900F1ED
S214403470FF3380F00A81A14540F2078102383C4480
S214403480A4EB090440EA08400021002E61D024FA4B
S2144034900EF4002334607360BDE8F0878B4207D992
S2144034A0002E54D0002186E821000846BDE8F0876B
S2144034B0B3FA83F1002940F08E80AB4202D38242B9
S2144034C000F2FA80841A65EB03050120AC46002E14
S2144034D03FD086E81010BDE8F08712B90127B7FB49
S2144034E0F2F7B7FA87FEBEF1000F34D1EB1B3A0C69
S2144034F01FFA87FC0121B3FBF2F8250C02FB1833B8
S21440350045EA03450CFB08F3AB4207D9ED1908F131
S214403510FF3002D2AB4200F2D1808046ED1AA3B211
S214403520B5FBF2F002FB105543EA05440CFB00FCE9
S214403530A44507D9E41900F1FF3302D2A44500F2AE
S214403540B8801846A4EB0C0440EA08409DE7314694
S2144035503046BDE8F087CEF1200405FA0EF307FAB0
S2144035600EF720FA04F83A0C25FA04F448EA030861
S214403570B4FBF2F14FEA184502FB11441FFA87FCF0
S21440358045EA044501FB0CF3AB4200FA0EF409D9B8
S214403590ED1901F1FF3080F08A80AB4240F287801F
S2144035A002393D44EB1A1FFA88F5B3FBF2F002FBF2
S2144035B0103345EA034500FB0CF3AB4207D9ED193F
S2144035C000F1FF386FD2AB426DD902383D44EB1A5A
S2144035D040EA01418FE7C1F1200722FA07F88B4005
S2144035E005FA01F448EA030320FA07FE4FEA134CB3
S2144035F0FD404EEA040EB5FBFCF94FEA1E440CFBB8
S21440360019551FFA83F844EA054509FB08F4AC420D
S21440361002FA01F200FA01FA08D9ED1809F1FF3072
S21440362043D2AC4241D9A9F102091D442D1B1FFAD1
S2144036308EFEB5FBFCF00CFB10554EEA054400FB35
S21440364008F8A04507D9E41800F1FF3529D2A0456F
S21440365027D902381C4440EA0940A4EB0804A0FBE2
S21440366002894C45C6464D4615D312D056B1BAEBE4
S2144036700E0364EB050404FA07F7CB401F43CC4027
S214403680376074600021BDE8F0871846F8E690463B
S214403690E0E6C245EAD2B8EB020E69EB0305013814
S2144036A0E4E72846D7E7404691E78146BEE701462D
S2144036B078E702383C4445E7084608E7A8F10208A0
S2144036C03D442BE7704700BF70B50F4E0F4D761B3D
S2144036D0B61018BF002405D0013455F8043B98476F
S2144036E0A642F9D10A4E0B4D761B05F0FDFDB610ED
S2144036F018BF002406D0013455F8043B9847A6422C
S214403700F9D170BD70BD00BFF4924000F492400005
S214403710FC924000F492400070B4860746D0541E97
S214403720002A41D0CAB2034602E014F1FF343BD32C
S21440373003F8012B9D07F8D1032C2ED9CDB245EACC
S21440374005250F2C45EA054519D903F110022646F2
S214403750103E0F2E42F8105C42F80C5C42F8085CB3
S21440376042F8045C02F11002F2D8A4F1100222F0F2
S2144037700F0204F00F041032032C13440DD91E46DA
S2144037802246043A032A46F8045BFAD8221F22F05F
S21440379003020432134404F003042CB1C9B21C449F
S2144037A003F8011B9C42FBD170BC7047144603468D
S2144037B0C2E700BF0EB4F0B59CB021AB0F4953F83A
S2144037C0042B019305466FF00044086802954FF4B9
S2144037D002774FF6FF7602A90695ADF8147004946A
S2144037E00794ADF8166000F0E3FA029B00221A70C8
S2144037F01CB0BDE8F04003B0704700BF100000208A
S214403800C9B2002941D08207F0B467D00378002BB4
S21440381068D0994237D0431C04E013F8010B90B3AC
S21440382081422FD09A071C46F7D1256841EA0123EA
S21440383043EA034383EA0506A6F10130A5F10132C7
S21440384020EA060022EA0502024312F0803F11D128
S214403850204650F8046F83EA0607A7F10135A6F123
S214403860013225EA070522EA06022A4312F0803F83
S214403870EFD00446207818B905E014F8010F10B1CF
S2144038808142FAD12046F0BC7047830724D00378A3
S214403890002BF9D0431C03E002780133002AF3D012
S2144038A099071846F8D11968A1F1013222EA0102B7
S2144038B012F0803F08D153F8041FA1F1013222EAEA
S2144038C0010212F0803FF6D01A78184642B110F83E
S2144038D0013F002BFBD170470346E4E70446A4E7CC
S2144038E0184670471846CEE72DE9F0414FF0010ED6
S2144038F0744600254FF0FF362B198B4200EB060727
S2144039000DD23F5D10F803C0BC452DD21D460124A4
S214403910A3EB060E2B198B4200EB0607F1D34FF0B4
S2144039200108C2F800E0444600254FF0FF372B1947
S214403930994200EB070E0ED91EF804E010F803C0BB
S214403940F44518D91D460124A3EB07082B199942C4
S21440395000EB070EF0D80137701C874224BFC2F830
S21440396000803846BDE8F0810CD04FF0010E2E4660
S21440397074467544C0E70BD04FF001082F464446C6
S2144039804544D4E7744512BF01341D460124B3E7CD
S214403990444512BF01341D460124C8E72DE9F04FC7
S2144039A0ADF2144D164605468B461046194603AAF8
S2144039B01C46FFF799FF03AB81460DF20C4243F8D5
S2144039C0044F9342FBD14CB1631E721E04A812F8FA
S2144039D0011F40F8213013F1FF33F8D203994A46CD
S2144039E03144304602F014FF00286FD109F1FF330E
S2144039F00093F31882460193234680465446584621
S214403A009A4608EB0A073A1A0021284402F0B0FE0C
S214403A10002856D1002F54D0EB1904AA13F8013CC5
S214403A2052F823304BB124B1039A934201D2AAEB09
S214403A300203984400243846E3E74C4523460AF1FF
S214403A40FF3E38BF4B46734513D208EB030216F8C9
S214403A5003C0A85C84452A4406EB030106D02CE04C
S214403A6011F801CF12F8010F844526D10133734572
S214403A70F6D34C45009980F08980009B08EB030202
S214403A80019BA85C1B7898422A447FD1019804F198
S214403A90FF3B06E010F801CD12F801EDF44503D1E6
S214403AA019464B1E9B45F5D101348C4270D8039C79
S214403AB03846A044AAEB0404A3E7C9F101029044A7
S214403AC0B7E700200DF2144DBDE8F08FA4EB0903D4
S214403AD04B4538BF4B46013309F1FF38039306EB9D
S214403AE0080358464FF0000ACB4699460AEB0407AF
S214403AF03A1A0021284402F03BFE0028E1D1002F6C
S214403B00DFD0EB1904AA13F8013C52F82330A3BBCC
S214403B10611E8B4515D20AEB0B0216F80B3015F8D2
S214403B2002E09E452A4406EB0B005B4606D027E0A3
S214403B3010F801CF12F801EFF44521D101338B4242
S214403B40F6D3B8F1FF3F11D00AEB080299F80010FF
S214403B50AB5C99422A440FD14B4605E013F8010D61
S214403B6012F8011D884207D1B342F7D105EB0A008F
S214403B700DF2144DBDE8F08F039B9A443846B5E7E6
S214403B80CBF1010292449A443846AFE749468BE768
S214403B9005EB080096E700BF0278002A00F0018196
S214403BA02DE9F04F91F8008085B04446B8F1000FFB
S214403BB016D0864601F1010C012703E013F8014BAD
S214403BC06CB19C46A24214BF002707F001071EF8BE
S214403BD0012F6346002AF1D19CF80030FBB917B19B
S214403BE005B0BDE8F08F0E46054641460130ACEBC9
S214403BF00604FFF705FE074688B1012CF0D02819C9
S214403C00874294BFC11B01211F2C8B460BD92346EC
S214403C1032463846FFF7C2FE05B0BDE8F08F0020BA
S214403C2005B0BDE8F08F03AA21463046FFF75CFE9C
S214403C300399804602463144304602F0E9FD0028AA
S214403C4057D108F1FF330093F31881460546019398
S214403C505846B2466619321A0021384402F088FDAA
S214403C600028DCD1002EDAD0C845434638BF4B4644
S214403C709C4212D95A191AF80310B85C81423A4449
S214403C800AEB030E06D02CE01EF8010F12F8011FB7
S214403C90884226D101339C42F6D1C845009940F26D
S214403CA08380009BEA18019BB85C1B7898423A4494
S214403CB07AD1019809F1FF3B06E010F801CD12F8E1
S214403CC001EDF44503D119464B1E5B45F5D109F18C
S214403CD00109894557D8039B30461D44A4EB030988
S214403CE0B8E7C8F1010215441D444FF000093046BC
S214403CF0B0E7A4EB0803434538BF4346013308F119
S214403D00FF39039306EB090358460025BB469A46FF
S214403D1067193A1A0021584402F02AFD00287FF419
S214403D207EAF002F3FF47BAF444515D908EB050224
S214403D3016F808301BF8020098425A4406EB080171
S214403D40434606D023E011F801EF12F8010F8645EE
S214403D501DD101339C42F6D1B9F1FF3F12D005EB9D
S214403D6009029AF800301BF8021099425A4414D1BE
S214403D70534605E013F8010D12F8011D88420CD198
S214403D80B342F7D15F46781905B0BDE8F08FC8F169
S214403D90010215441D443846BAE7039B38461D4485
S214403DA0B6E70B7813B97047414690E70020704756
S214403DB02DE9F04FC3B00C460B9192460F930C90F2
S214403DC002F00EFA03681A93184603F019F9A3890D
S214403DD01990190603D52369002B01F003800023B0
S214403DE00DF1C809139315931493279326931893AC
S214403DF01B930993CDF89490C846169317939AF858
S214403E0000305446E3B1252B02D119E0252B03D0D0
S214403E1014F8013F002BF9D1A4EB0A0585B1269B87
S214403E20279AC8F800A001332A44072BC8F8045044
S214403E30279226937FDC08F10808099B2B440993B8
S214403E402378002B7FD000231A468DF8773019460A
S214403E500D939B464FF0FF3063780A9004F1010AB9
S214403E600AF1010AA3F12000582800F2C183DFE8D6
S214403E7010F03802BF03BF034002BF03BF03BF03B7
S214403E80BF03BF03BF0345020302BF035D006B02CF
S214403E90BF0386029D039D039D039D039D039D03D3
S214403EA09D039D039D03BF03BF03BF03BF03BF0323
S214403EB0BF03BF03BF03BF03BF0337035703BF039D
S214403EC05703BF03BF03BF03BF039803BF03BF032C
S214403ED0AD03BF03BF03BF03BF03BF035902BF0306
S214403EE0BF031E03BF03BF03BF03BF03BF03BF031E
S214403EF0BF03BF03BF03BF03C602DB02570357031C
S214403F0057038B02DB02BF03BF039002BF039D0231
S214403F10CC01B4020802BF03E101BF037E00BF0329
S214403F20BF030D020D980F9340420D904BF0040BCB
S214403F309AF8003094E725AA0B990C9803F0CEF82F
S214403F4040B9C84679E7279B23B10C980B9925AA18
S214403F5003F0C4F80B9B9B8913F0400F099B18BFD6
S214403F604FF0FF330993099843B0BDE8F08F1BF03C
S214403F70200F119340F0DD810F9A1BF0100F13466F
S214403F8040F06E851BF0400F00F06A8514880432BE
S214403F90002501230F9200278DF877700A994A1C56
S214403FA000F065822BF08002079254EA050240F04A
S214403FB06482002940F03C84002B40F0D7841BF0FC
S214403FC001030E9300F0048642AE302306F8413DCE
S214403FD00A9B0E9A9342B8BF134608930023129347
S214403FE017B1089B01330893079B13F00203109305
S214403FF002D0089B02330893079B13F0840540F0D9
S2144040000E830D9B089AA3EB020BBBF1000F40F307
S2144040100683BBF1100F279C269A29DD434621468E
S214404020A84610270C9C0B9D06E0ABF1100BBBF18D
S214404030100F03F1080318DD0132B74826921031FD
S214404040072A279183E88100EFDD25AA29462046E6
S21440405003F044F800287FF47DAFABF1100BBBF1C2
S214404060100F2799269A4B46E6DC45460C4698465E
S2144040700132A94B26925C44072A279488E8080810
S21440408000F398849DF8777008F1080877B1269B6E
S214404090013301340DF177010122072B2794269333
S2144040A088E8060000F3DB8308F10808109B6BB134
S2144040B0269B013302341EA90222072B27942693FF
S2144040C088E8060000F3D68308F10808802D00F043
S2144040D015830A9B0E9A9F1A002F36DD102F269BBB
S2144040E08E4D27DD42462146B0464FF0100B2E46F9
S2144040F00C9C0B9D04E0103F102F02F1080215DDCA
S21440410001331031072B2791269382E84008F2DDD1
S21440411025AA2946204602F0E1FF00287FF41AAF80
S214404120103F102F2799269B4A46E9DC35460C4619
S2144041304646904601333C44072B2794269388E80E
S214404140A00000F3818308F10808079BDF0500F113
S2144041506882269B0E99C8F8006001330C44072BF2
S2144041602794C8F80410269300F34D8308F10808F6
S214404170079B5B073AD50D9B089A9D1A002D35DDA7
S214404180102D269B20DD10260C9FDDF82CB004E079
S214404190103D102D08F1080816DD01335E4A2693BF
S2144041A01034072B279488E84400F1DD25AA5946A9
S2144041B0384602F093FF00287FF4CCAE103D102D19
S2144041C0279C269BC846E8DC0133534A26932C445A
S2144041D0072B279488E8240008DD25AA0B990C981D
S2144041E002F07CFF00287FF4B5AE279C099B0D9A11
S2144041F008998A42ACBF9B185B180993002C40F084
S2144042000D8300232693C846F9E511931BF020033F
S21440421040F0E3811BF0100240F02E841BF0400378
S21440422000F02A840F9913460A4604320C880F92EF
S2144042300025B0E60F9A1193166800248DF8774053
S214404240151D002E00F0A7860A9A531C00F009861A
S2144042502146304602F08CFA002800F0E186831BA7
S2144042600E930A940F95CDF81CB023EAE373089397
S21440427012949DF87770B3E69AF8003001222B210D
S214404280EEE54BF0200B9AF80030E9E51193002A52
S21440429040F09587224B18931BF0200F40F0118179
S2144042A00F9A1BF0100F134640F0E1831BF0400FAF
S2144042B000F0DD83043314880F9300251BF0010FB4
S2144042C000F00C8154EA050300F0088130239DF885
S2144042D044208DF878308DF879204BF0020B02237D
S2144042E059E69AF8003000297FF4BAAD0122202121
S2144042F0B6E54BF0010B9AF80030B1E50F9C236809
S2144043000D9318460028234603F10403FFF60AAE31
S2144043100F939AF80030A3E5A4904000B490400074
S214404320849040004BF0100B1BF0200F11933FF48D
S21440433023AE0F9D073525F0070303F10802D3E9A6
S21440434000450F92012326E69AF800302A2B0AF100
S214404350010400F02787A3F130000928A24600F2A6
S214404360AD8600231C461AF8013B04EB840400EBA0
S2144043704404A3F130000928F5D90A9472E54BF0BD
S214404380800B9AF800306BE54BF0400B9AF8003003
S21440439066E59AF800306C2B03BF9AF801304BF074
S2144043A0200B0AF1010A4BF0100B59E5002A40F0A9
S2144043B011871BF0200F40F0F9841BF0100F40F0DF
S2144043C0AC841BF0400F00F0A8840F9A13680432A8
S2144043D00F92BDF824201A8011E50F99B34B0C6854
S2144043E018933022782304318DF8793011934BF0AE
S2144043F0020B0F9100258DF878200223CBE50F990C
S21440440011930A688DF8A02000230A461F468DF8AF
S2144044107730043201230893CDF81CB00A971297E0
S2144044200F920E9328AEDFE51193002A40F0EA86FD
S2144044301BF0200F5DD11BF0100F40F008831BF0DF
S214404440400F00F004830F99B1F900400431E5179E
S21440445022462B460F91002A73F1000358DB0A9937
S2144044609DF877704A1C4FF001037FF49BAD54EAE9
S214404470050200F0DF81CDF81CB0012B00F07B82F6
S214404480022B40F0068218984E46230904F00F018E
S21440449043EA05732A091C461546435C06F8013D67
S2144044A054EA0503F1D1A9EB06030E9390E5119368
S2144044B0002A40F0A3867E4B18931BF0200F3FF453
S2144044C0EFAE0F9D073525F0070303F108021BF0FA
S2144044D0010F0F92D3E900457FF4F4AE02235AE56C
S2144044E01193002A40F086864BF0100B1BF0200FED
S2144044F0A1D00F9D073525F00705D5E90023002AF2
S21440450005F108011D4673F100030F911446A6DA23
S2144045102D27644265EB45058DF8777001233DE510
S2144045201193002A40F062860F9D073525F0070359
S21440453003F108020F921A6815925B681493149B55
S214404540159D23F00044284621464FF0FF32594B34
S21440455003F08AFE002840F04A83284621464FF062
S214404560FF32544B03F062FE002840F0408315A80B
S2144045700DC8149903F050FE002840F030859DF891
S21440458077704D4E4D4B2BF08000079011980322CC
S214404590002108920A914728D8BF1E460E921291D3
S2144045A01EE54BF0080B9AF8003059E4A3F13000B2
S2144045B000231C461AF8013B04EB840400EB440439
S2144045C0A3F130000928F5D90D944BE44BF0100BBD
S2144045D011931BF020033FF41DAE0F9D073525F0C9
S2144045E0070303F10802D3E900450F920023D2E403
S2144045F01193002A40F0E785119A002A3FF4A3ACB5
S214404600002301211F4608918DF8A020CDF81CB04C
S2144046108DF877300A9312930E9128AEE4E4279CE7
S21440462034E5119B652B40F3A78015A80DC8149957
S21440463003F0E8FD002800F05081269B204AC8F889
S2144046400020013301340122072B27942693C8F813
S214404650042000F36A8308F108081F9B139A279CDE
S214404660934203DB079BDD077FF582AD269B1999B6
S2144046701A9AC8F8002001330C44072BC8F80410D7
S2144046802794269300F39E8308F10808139B5E1E2A
S214404690002E7FF76DAD102E269B0A4D40F3F58118
S2144046A022461027DDF830B00B9C13E08490400083
S2144046B070904000FFFFEF7F6490400060904000A5
S2144046C0A0904000B490400008F10808103E102E1C
S2144046D040F3DA8101331032072B2792269388E87D
S2144046E0A000F1DD25AA2146584602F0F7FC002836
S2144046F07FF430AC279A269BC846E7E70D9B089A7E
S2144047009F1A002F7FF7E5AC102F269BB64D27DD6E
S21440471042462146B0464FF0100B2E460C9C0B9D51
S21440472004E0103F102F02F1080215DD013310316E
S214404730072B2791269382E84008F2DD25AA2946D2
S214404740204602F0CBFC00287FF404AC103F102F2C
S2144047502799269B4A46E9DC35460C46464690460F
S21440476001333C44072B2794269388E8A00000F3A7
S214404770328208F10808ACE4139B269F012B40F3D5
S214404780FE81013701340123072F27942697C8F866
S2144047900060C8F8043000F3038208F10808199A4C
S2144047A01A9BC8F8003001371444072F27942697E1
S2144047B0C8F8042000F3008208F1080815A80DC8C0
S2144047C0149903F01FFD139B002840F00181013B24
S2144047D0013701361C44072F26972794C8F80060F7
S2144047E0C8F8043000F3278108F108081B9AC8F877
S2144047F004200137144421AB072F27942697C8F886
S21440480000307FF7B3AC25AA0B990C9802F066FCF3
S21440481000287FF49FAB279CC846A9E425AA0B999D
S2144048200C9802F05BFC00283FF4EBACFFF792BB21
S214404830DDF81CB0012B00F03481022B25D1CDF8D9
S2144048401CB0002400251EE625AA0B990C9802F001
S21440485045FC00287FF47EAB279CC84675E425AA15
S2144048600B990C9802F03AFC00287FF473AB279C17
S214404870C8461BE425AA0B990C9802F02FFC00288A
S2144048807FF468AB279CC84620E4CDF81CB00024D3
S2144048900025494600E03146E20842EA4572E8080B
S2144048A004F0070305461446303354EA050201F87F
S2144048B0013C01F1FF36EED1079AD2077FF5F3AD02
S2144048C0302B3FF4F0AD0239302306F8013CA9EB1B
S2144048D001030E930E46FFF77BBB1F99002940F35A
S2144048E02E82129B139A9342A8BF1346002B1F4654
S2144048F00DDD269BC8F8006001333C44072B279407
S214404900C8F80470269300F31F8308F10808129B2A
S214404910002FA8BFDB1B002B1F4640F3D680102F6E
S214404920269B314D40F3ED8142462146B0464FF03E
S214404930100B2E460C9C0B9D04E00832103F102FA7
S21440494040F3DB8101331031072B2791269382E811
S2144049504008F2DD25AA2946204602F0BFFB002883
S2144049607FF4F8AA2799269B4A46E7E70A9B0E93C8
S2144049704E46FFF72DBB002D08BF0A2CC0F08F8097
S2144049804E46204629460A220023FEF715FD3032C1
S21440499006F8012D2046294600230A22FEF70CFD84
S2144049A004460D4654EA0503EBD1A9EB06030E93E5
S2144049B0FFF70EBB25AA0B990C9802F08FFB002838
S2144049C07FF4C8AA9DF87770279CC846FFF75EBB61
S2144049D05E1E002E7FF70AAF102E034D22DD2246C4
S2144049E04FF0100B0C9C06E0B4904000103E102E8A
S2144049F008F1080815DD01371032072F2792269751
S214404A0088E82008F2DD25AA0B99204602F066FBCE
S214404A1000287FF49FAA103E102E279A269FC8464D
S214404A20E9DC144601373444072F2794269788E854
S214404A3060007FF7D9AE25AA0B990C9802F04EFB82
S214404A4000287FF487AA279C269FC846CEE60F9A62
S214404A50146813460433E5170F9322462B46FAE4B0
S214404A6004321C680F9201230025FFF794BA1C6895
S214404A7004330F93002521E40F990A4604320C684C
S214404A800F920025FFF787BA144601333444072BAC
S214404A902794269388E860007FF768ABB3E6DDF896
S214404AA01CB0CDF81CB042AE3034012306F8414D60
S214404AB00E93FFF78DBA25AA0B990C9802F00EFBC1
S214404AC000287FF447AA279CC8461F9A139B9A4201
S214404AD044DB079BD90741D4139B12989A1A1D1A98
S214404AE09542A8BF1546002D0EDD2699C8F80450FD
S214404AF0013106442C440729C8F8006027942691C3
S214404B0000F33B8208F10808002DACBF561B164642
S214404B10002E7FF72DAB102E269BB04DB5DD2246DE
S214404B201027DDF830B00B9C04E008F10808103E72
S214404B30102EA9DD01331032072B2792269388E8E2
S214404B40A000F2DD25AA2146584602F0C7FA002802
S214404B507FF400AA279A269BC846E8E7269B199822
S214404B601A99C8F8001001330444072B2794C8F854
S214404B700400269300F3F58108F10808ACE7079B8C
S214404B80DA073FF5FEAD013701340123072F27949E
S214404B902697C8F80060C8F804307FF725AE4AE785
S214404BA025AA0B990C9802F099FA00287FF4D2A90E
S214404BB0279C269FC846F2E525AA0B990C9802F03A
S214404BC08DFA00287FF4C6A9279C269FC846F5E59F
S214404BD04E46FFF7FDB925AA0B990C9802F07EFACF
S214404BE000287FF4B7A9279CC846FFF772BA159CE1
S214404BF022462046149C2346214603F035FB0028D7
S214404C0040F086820A9B0133119B23F020030E93CB
S214404C1000F0E281472B00F01E814BF4807307932F
S214404C20149B1F1E159B0893BBBF3B4603F10047D2
S214404C3000232D231093119B662B00F0BB81462B3F
S214404C4000F0DF800E9B089A452B0CBF0A9B0A9DFE
S214404C5023A820A908BF5D1C049003911FA8022129
S214404C603B460290019500910C9800F075FB119B15
S214404C70672B064640F0E0811BF0010F00F04682AD
S214404C807419169A0898179B394603F0BBFA002801
S214404C9040F06581239BA34206D230215A1C2392C2
S214404CA01970239B9C42F9D89B1B13930E9B472B52
S214404CB000F0E980119B652B40F3CD81119B662B5C
S214404CC01F9B129300F09E81139B129A19469142A5
S214404CD000F38A811BF0010F40F0138222EAE27350
S214404CE0089367230E921193109B002B40F0C480CC
S214404CF00A939DF87770FFF773B935460C464646DB
S214404D00904601333C44072B2794269388E8A0001E
S214404D103FF7D1AE08F10808D7E60F9A1368043279
S214404D200F92099A1A60FFF76AB825AA0B990C9851
S214404D3002F0D4F900287FF40DA9C8468DE4269BDE
S214404D40274AC8F80020013301340122072B279454
S214404D502693C8F8042072DC08F1080829B9139B8A
S214404D601BB9079BD8077FF503AA269B19981A9A62
S214404D70C8F80020013302462244072B2792C8F881
S214404D800400269300F38D8108F108080029C0F23C
S214404D9065811399C8F8006001338C18072B279457
S214404DA02693C8F804107FF7E1A92CE50F9A0999D5
S214404DB01368CD170846043229460F92C3E900010E
S214404DC0FFF71DB825AA0B990C9802F087F9002822
S214404DD07FF4C0A8279CC84658E400BFB490400063
S214404DE0A090400040210C9801F00CFA0B9A1060FD
S214404DF01061002800F0F2810B9A40235361FEF7C1
S214404E00EEBF23A820A90A9C049003911FA8032163
S214404E100290089A01943B4600910C9800F09CFA48
S214404E2025460646119B462B06EB05047FF429AF24
S214404E303378302B00F078811F9D2C4421E725AA3B
S214404E400B990C9802F04AF900287FF483A81F9922
S214404E50279CC84682E70A9B002B08BF01230A937B
S214404E60DBE630460A9402F0CBF80F950E90CDF86C
S214404E701CB00346FFF7F9B92D2700238DF877704D
S214404E800A93FFF7AEB81F9B12931A46033304DB10
S214404E900A9B19469142BFF617AF119B023B1193EE
S214404EA09DF844308DF88430129B013B002B1F93B5
S214404EB0BDBF129BC3F101032D222B22092B8DF877
S214404EC0852040F316810DF193042046AB4D00E05B
S214404ED0104685FB0312D917C1EBA20101EB8102F4
S214404EE0A3EB42023032092900F8012C0B4600F1B0
S214404EF0FF32EDDC30330238D9B2844202F8011C6E
S214404F0040F265810DF18600134601E013F8011B5F
S214404F1000F8011BA342F9D101339B1A0DF186021A
S214404F20134421AA9B1A139A1B93012A13440E93E7
S214404F3040F319810E9B199A13440E9323EAE373A8
S214404F40089300231293CFE625AA0B990C9802F0FB
S214404F50C5F800287EF4FEAF279CC846D7E4234613
S214404F60A2E625AA0B990C9802F0B8F800287EF421
S214404F70F1AF1F9A279CC846AEE525AA0B990C9818
S214404F8002F0ACF800287EF4E5AF1F9A139B279CEE
S214404F909A1AC846B8E50A9B1296062B28BF0623DF
S214404FA00A96374608930F95CDF81CB00E93744E6C
S214404FB0FFF716B823A820A90A9D049003911FA8BE
S214404FC003210290089A01953B4600910C9800F008
S214404FD0C3F9064644192BE706230A931DE62D27F8
S214404FE08DF87770FFF7CDBA199A139B1344129A2F
S214404FF00E93002A40F3B08023EAE37308936723B6
S214405000119371E6002B40F3C3800A9A002A40F0C1
S21440501099801BF0010F40F0958008930E9363E64D
S2144050200A9B08930E930A900F95CDF81CB01290E9
S2144050309DF87770FEF7D4BF119B472B7FF420AEC8
S2144050401BF0010F7FF4EEAE239B9B1B13930E9B2E
S214405050472B3FF418AF1F9B129321E74F42103166
S214405060484D2FDA1024DDF830B004E008F1080887
S214405070103F102F26DD01331032072B2792269340
S214405080C8F80050C8F80440F0DD25AA0B995846E9
S21440509002F024F800287EF45DAF279A269BC84687
S2144050A0E6E725AA0B990C9802F018F800287EF43B
S2144050B051AF1F99279A269BC84667E600200A905C
S2144050C0FEF7D0BE01333A44072B88E8A00027926B
S2144050D0269308F108087FF75CAE25AA0B990C9832
S2144050E001F0FCFF00287EF435AF279A269BC84681
S2144050F04FE6303330228DF887308DF8862022AB4D
S2144051000FE7129B199A13440E9375E7239BCBE542
S214405110149B1D4E002BB6BF2D279DF877708DF83B
S21440512077701A4BFFF72FBA169A0898179B39468E
S21440513003F068F800287FF47FAEC5F101051F959F
S2144051402C449EE5129B199A13440A9A1A4422EA62
S214405150E2730E920893C7E5129B0E9AC3F10103C1
S2144051601A441346D0E71BF0010312937FF4E2AED5
S2144051700E9B23EAE3730893B6E500BF6766666650
S21440518098904000B49040006C904000689040007A
S2144051900A9B13B91BF0010F02D0199B0133D4E7C9
S2144051A001233AE70F9D9AF80130286840EAE070FC
S2144051B00A9028460430A2460F90FEF751BE8DF85E
S2144051C07710FFF767B88DF87710FFF715BA0DF12F
S2144051D08603A6E68DF87710FFF7EBB80C9A0C23FB
S2144051E013604FF0FF330993FEF7BDBE8DF877107E
S2144051F0FFF79AB98DF87710FFF776B98DF87710E4
S214405200FFF759B98DF87710FFF712B9024B13B173
S214405210024800F005B8704700000000AD6140004D
S214405220002301461A46184601F0D6BF02690B69AC
S214405230934200F38D802DE9F04F03F1FF3801F1E2
S214405240140700F1140B57F828205BF828304FEA73
S214405250880483B00132B3FBF2F90BEB04030094ED
S21440526007EB040A0193B9F1000F39D000252E460A
S214405270BC46DE465CF8044BDEF80030A2B209FBC2
S2144052800255220C2C0C09FB0242ADB2751B96B29D
S214405290C6EB134615FA83F306EB23469BB243EA66
S2144052A00643E2454FEA12454EF8043B4FEA26468F
S2144052B0E0D2009B5BF8033093B9019C231F9B45CB
S2144052C00CD254F8043C4BB9A4F1080302E01A6827
S2144052D0043B1AB99B4508F1FF38F8D3C0F8108054
S2144052E0044601F069FD00282EDB09F101095D4600
S2144052F0002357F8041B28688AB29A1A0B0C12FA35
S21440530080F2C3EB104303EB224392B242EA0342DD
S214405310BA4545F8042B4FEA2343EAD25BF82820E7
S2144053200BEB880382B91A1F93450BD253F8042C13
S21440533042B9083B02E01A68043B1AB99B4508F19B
S214405340FF38F8D3C4F81080484603B0BDE8F08F65
S21440535000207047000000002DE9F04F016C9BB024
S2144053600446279E92469B4641B1426C4A600123C2
S21440537093408B6001F048FB00232364BBF1000F91
S2144053805D4635DB002333609D4BAB4315D050461E
S21440539059460022002302F035FF804600282DD0D3
S2144053A0269A01231360289B002B00F0BD80954869
S2144053B0186001381BB0BDE8F08F269A42F20F7392
S2144053C01360BAF1000F0DD1C5F3130555B9289BEC
S2144053D08D48002BEED000F10803289A13601BB0CE
S2144053E0BDE8F08F289B8948002BE3D0C31CF4E728
S2144053F001232BF000453360AB46C5E718AA19AB2E
S2144054000192009352465B46204601F075FD2B0DF7
S214405410814671D0CBF3130242F07F51189FCDF8EE
S21440542050805046A3F2FF3641F440110022784B9C
S21440543002F0CCFA6CA3D3E9002302F07BFC6CA309
S214405440D3E9002302F0C4FACDE90201304602F067
S2144054500BFC69A3D3E9002302F06CFC02460B4622
S214405460DDE9020102F0B4FACDE9040102F012FFD0
S214405470002202900023DDE9040102F0CDFE002860
S21440548040F07381029D162D00F25D81614B03EB67
S214405490C503D3E9000152465B4602F0DBFE002816
S2144054A000F0C5816B1E029300230E93BF1B7B1E2C
S2144054B0069300F1548100230893029B002BC0F210
S2144054C04581069A0D9311461944002306910C9384
S2144054D0249B092B2AD8052B40F35B86043B249358
S2144054E00025249B023B032B00F24286DFE813F0A4
S2144054F0D403C902DF036104189F199E3E4406F296
S2144055003243202B40F38E81C3F1400306F2124013
S2144055109D402AFA00F0284302F096FB0123013E04
S214405520A1F1F871149381E73B4843E70021616499
S2144055302046259101F042FA4FF0FF330A93259A10
S2144055400F9301230490206424920B93199B002B05
S214405550C0F2D980029A0E2A00F3D5802D4B03EB79
S214405560C203D3E90023CDE90823259B002BC0F2D4
S214405570BA83DDE9085650462A463346594602F075
S21440558003FD02F087FE804602F06EFB2A46334655
S21440559002F0D0FB0B4602465946504602F016FA39
S2144055A0049D08F130032B700A9B012B06460F46DC
S2144055B005F1010568D00022184B02F0BBFB002223
S2144055C0002306460F4602F01DFE002840F0888065
S2144055D0CDF82C904FF0000ADFF840B00C94DDE98F
S2144055E0088928E0AFF3008061436F63A787D23F06
S2144055F0B3C8608B288AC63FFB799F501344D33F7D
S2144056000000F07FA1904000C4904000D090400041
S2144056100000F83F00914000A09040000000244069
S21440562002F088FB0022002306460F4602F0EAFD01
S214405630002840F0C18342464B463046394602F089
S214405640A3FC02F027FE044602F00EFB42464B4601
S21440565002F070FB02460B463046394602F0B6F979
S21440566004F1300E049E05F801EBA5EB060E0A9EEB
S214405670B645CDE9060152465B46D1D1A046DDF897
S2144056802C900C9C06460F4632463B4630463946E2
S21440569002F09EF906460F4602460B46DDE9080133
S2144056A002F0BAFD48B932463B46DDE9080102F051
S2144056B0A9FDA8B118F0010F12D015F8018C049A74
S2144056C06B1E04E09A4200F0018413F8018DB8F195
S2144056D0390F03F10105F5D008F1010883F8008081
S2144056E04946204601F090F90022029B2A70269AED
S2144056F001331360289B002B00F09E8304981D60A6
S2144057001BB0BDE8F08F0B9A002A3ED0249A012A9F
S21440571040F311830A9B0C9A5F1EBA42C0F28F83F5
S214405720D71B0A9B002BC0F28B84089D0A9B089AC5
S2144057301A440892069A01211A442046069201F01D
S214405740FDF9064624E001230E93AFE6089A029B35
S214405750D21A5B420C93002308920D93B8E6C7F129
S2144057600103089300230693A7E6029D284602F00D
S2144057707BFA02460B46DDE9040102F043FD0028B1
S2144057807FF480AE6B1E02937CE60C9F089D0B9EBA
S214405790002D0CDD069900290B4608DDA942089A23
S2144057A0A8BF2B46D21AED1ACB1A089206930C9B2A
S2144057B0D3B10B9B002B00F0B782002F10DD314693
S2144057C03A46204601F056FA4A46014606462046E4
S2144057D001F0BEF949468046204601F015F9C1461B
S2144057E00C9BDA1B40F0A1820121204601F0A6F96D
S2144057F00D9B002B80461CDD01461A46204601F0D4
S21440580039FA249B012B804640F3548200230C93A4
S214405810D8F8103008EB8303186901F03FF9C0F15F
S214405820200010E0C3F120050AFA05F074E60E9059
S2144058303CE6249B012B40F3878200230C930D9B70
S2144058400120002BE4D1069A104410F01F0000F00F
S214405850A180C0F12003042B40F39E84089BC0F136
S2144058601C00034408931346034405440693089BD0
S214405870002B05DD49461A46204601F04BFA814684
S214405880069B002B05DD41461A46204601F042FAAB
S21440589080460E9B002B40F086800A9B002B40F3F0
S2144058A066820B9B002B00F09880002D05DD31466C
S2144058B02A46204601F02EFA06460C9B002B40F066
S2144058C0378306960A9B049ADDF818B0013BD31836
